{
  "_format": "hh-sol-artifact-1",
  "contractName": "BorrowYourCar",
  "sourceName": "contracts/BorrowYourCar.sol",
  "abi": [
    {
      "inputs": [],
      "stateMutability": "nonpayable",
      "type": "constructor"
    },
    {
      "inputs": [
        {
          "internalType": "address",
          "name": "sender",
          "type": "address"
        },
        {
          "internalType": "uint256",
          "name": "tokenId",
          "type": "uint256"
        },
        {
          "internalType": "address",
          "name": "owner",
          "type": "address"
        }
      ],
      "name": "ERC721IncorrectOwner",
      "type": "error"
    },
    {
      "inputs": [
        {
          "internalType": "address",
          "name": "operator",
          "type": "address"
        },
        {
          "internalType": "uint256",
          "name": "tokenId",
          "type": "uint256"
        }
      ],
      "name": "ERC721InsufficientApproval",
      "type": "error"
    },
    {
      "inputs": [
        {
          "internalType": "address",
          "name": "approver",
          "type": "address"
        }
      ],
      "name": "ERC721InvalidApprover",
      "type": "error"
    },
    {
      "inputs": [
        {
          "internalType": "address",
          "name": "operator",
          "type": "address"
        }
      ],
      "name": "ERC721InvalidOperator",
      "type": "error"
    },
    {
      "inputs": [
        {
          "internalType": "address",
          "name": "owner",
          "type": "address"
        }
      ],
      "name": "ERC721InvalidOwner",
      "type": "error"
    },
    {
      "inputs": [
        {
          "internalType": "address",
          "name": "receiver",
          "type": "address"
        }
      ],
      "name": "ERC721InvalidReceiver",
      "type": "error"
    },
    {
      "inputs": [
        {
          "internalType": "address",
          "name": "sender",
          "type": "address"
        }
      ],
      "name": "ERC721InvalidSender",
      "type": "error"
    },
    {
      "inputs": [
        {
          "internalType": "uint256",
          "name": "tokenId",
          "type": "uint256"
        }
      ],
      "name": "ERC721NonexistentToken",
      "type": "error"
    },
    {
      "anonymous": false,
      "inputs": [
        {
          "indexed": true,
          "internalType": "address",
          "name": "owner",
          "type": "address"
        },
        {
          "indexed": true,
          "internalType": "address",
          "name": "approved",
          "type": "address"
        },
        {
          "indexed": true,
          "internalType": "uint256",
          "name": "tokenId",
          "type": "uint256"
        }
      ],
      "name": "Approval",
      "type": "event"
    },
    {
      "anonymous": false,
      "inputs": [
        {
          "indexed": true,
          "internalType": "address",
          "name": "owner",
          "type": "address"
        },
        {
          "indexed": true,
          "internalType": "address",
          "name": "operator",
          "type": "address"
        },
        {
          "indexed": false,
          "internalType": "bool",
          "name": "approved",
          "type": "bool"
        }
      ],
      "name": "ApprovalForAll",
      "type": "event"
    },
    {
      "anonymous": false,
      "inputs": [
        {
          "indexed": false,
          "internalType": "uint256",
          "name": "carTokenId",
          "type": "uint256"
        },
        {
          "indexed": false,
          "internalType": "address",
          "name": "borrower",
          "type": "address"
        },
        {
          "indexed": false,
          "internalType": "uint256",
          "name": "startTime",
          "type": "uint256"
        },
        {
          "indexed": false,
          "internalType": "uint256",
          "name": "duration",
          "type": "uint256"
        }
      ],
      "name": "CarBorrowed",
      "type": "event"
    },
    {
      "anonymous": false,
      "inputs": [
        {
          "indexed": true,
          "internalType": "address",
          "name": "from",
          "type": "address"
        },
        {
          "indexed": true,
          "internalType": "address",
          "name": "to",
          "type": "address"
        },
        {
          "indexed": true,
          "internalType": "uint256",
          "name": "tokenId",
          "type": "uint256"
        }
      ],
      "name": "Transfer",
      "type": "event"
    },
    {
      "inputs": [],
      "name": "MAX_CAR",
      "outputs": [
        {
          "internalType": "uint256",
          "name": "",
          "type": "uint256"
        }
      ],
      "stateMutability": "view",
      "type": "function"
    },
    {
      "inputs": [
        {
          "internalType": "address",
          "name": "to",
          "type": "address"
        },
        {
          "internalType": "uint256",
          "name": "tokenId",
          "type": "uint256"
        }
      ],
      "name": "approve",
      "outputs": [],
      "stateMutability": "nonpayable",
      "type": "function"
    },
    {
      "inputs": [
        {
          "internalType": "uint256",
          "name": "",
          "type": "uint256"
        }
      ],
      "name": "available_cars",
      "outputs": [
        {
          "internalType": "uint256",
          "name": "",
          "type": "uint256"
        }
      ],
      "stateMutability": "view",
      "type": "function"
    },
    {
      "inputs": [
        {
          "internalType": "address",
          "name": "owner",
          "type": "address"
        }
      ],
      "name": "balanceOf",
      "outputs": [
        {
          "internalType": "uint256",
          "name": "",
          "type": "uint256"
        }
      ],
      "stateMutability": "view",
      "type": "function"
    },
    {
      "inputs": [
        {
          "internalType": "uint256",
          "name": "tokenId",
          "type": "uint256"
        },
        {
          "internalType": "uint256",
          "name": "duration",
          "type": "uint256"
        }
      ],
      "name": "borrowCar",
      "outputs": [],
      "stateMutability": "nonpayable",
      "type": "function"
    },
    {
      "inputs": [
        {
          "internalType": "uint256",
          "name": "",
          "type": "uint256"
        }
      ],
      "name": "cars",
      "outputs": [
        {
          "internalType": "address",
          "name": "owner",
          "type": "address"
        },
        {
          "internalType": "address",
          "name": "borrower",
          "type": "address"
        },
        {
          "internalType": "uint256",
          "name": "borrowUntil",
          "type": "uint256"
        }
      ],
      "stateMutability": "view",
      "type": "function"
    },
    {
      "inputs": [
        {
          "internalType": "uint256",
          "name": "",
          "type": "uint256"
        }
      ],
      "name": "cars_id",
      "outputs": [
        {
          "internalType": "uint256",
          "name": "",
          "type": "uint256"
        }
      ],
      "stateMutability": "view",
      "type": "function"
    },
    {
      "inputs": [
        {
          "internalType": "uint256",
          "name": "tokenId",
          "type": "uint256"
        }
      ],
      "name": "getApproved",
      "outputs": [
        {
          "internalType": "address",
          "name": "",
          "type": "address"
        }
      ],
      "stateMutability": "view",
      "type": "function"
    },
    {
      "inputs": [],
      "name": "helloworld",
      "outputs": [
        {
          "internalType": "string",
          "name": "",
          "type": "string"
        }
      ],
      "stateMutability": "pure",
      "type": "function"
    },
    {
      "inputs": [
        {
          "internalType": "address",
          "name": "owner",
          "type": "address"
        },
        {
          "internalType": "address",
          "name": "operator",
          "type": "address"
        }
      ],
      "name": "isApprovedForAll",
      "outputs": [
        {
          "internalType": "bool",
          "name": "",
          "type": "bool"
        }
      ],
      "stateMutability": "view",
      "type": "function"
    },
    {
      "inputs": [],
      "name": "manager",
      "outputs": [
        {
          "internalType": "address",
          "name": "",
          "type": "address"
        }
      ],
      "stateMutability": "view",
      "type": "function"
    },
    {
      "inputs": [],
      "name": "mintCars",
      "outputs": [],
      "stateMutability": "nonpayable",
      "type": "function"
    },
    {
      "inputs": [],
      "name": "name",
      "outputs": [
        {
          "internalType": "string",
          "name": "",
          "type": "string"
        }
      ],
      "stateMutability": "view",
      "type": "function"
    },
    {
      "inputs": [
        {
          "internalType": "uint256",
          "name": "tokenId",
          "type": "uint256"
        }
      ],
      "name": "ownerOf",
      "outputs": [
        {
          "internalType": "address",
          "name": "",
          "type": "address"
        }
      ],
      "stateMutability": "view",
      "type": "function"
    },
    {
      "inputs": [
        {
          "internalType": "address",
          "name": "",
          "type": "address"
        },
        {
          "internalType": "uint256",
          "name": "",
          "type": "uint256"
        }
      ],
      "name": "owner_cars",
      "outputs": [
        {
          "internalType": "uint256",
          "name": "",
          "type": "uint256"
        }
      ],
      "stateMutability": "view",
      "type": "function"
    },
    {
      "inputs": [],
      "name": "queryAvailableCars",
      "outputs": [
        {
          "internalType": "uint256[]",
          "name": "",
          "type": "uint256[]"
        }
      ],
      "stateMutability": "view",
      "type": "function"
    },
    {
      "inputs": [
        {
          "internalType": "uint256",
          "name": "tokenId",
          "type": "uint256"
        }
      ],
      "name": "queryCarBorrower",
      "outputs": [
        {
          "internalType": "address",
          "name": "",
          "type": "address"
        }
      ],
      "stateMutability": "view",
      "type": "function"
    },
    {
      "inputs": [
        {
          "internalType": "uint256",
          "name": "tokenId",
          "type": "uint256"
        }
      ],
      "name": "queryCarOwner",
      "outputs": [
        {
          "internalType": "address",
          "name": "",
          "type": "address"
        }
      ],
      "stateMutability": "view",
      "type": "function"
    },
    {
      "inputs": [],
      "name": "queryOwnedCars",
      "outputs": [
        {
          "internalType": "uint256[]",
          "name": "",
          "type": "uint256[]"
        }
      ],
      "stateMutability": "view",
      "type": "function"
    },
    {
      "inputs": [
        {
          "internalType": "address",
          "name": "from",
          "type": "address"
        },
        {
          "internalType": "address",
          "name": "to",
          "type": "address"
        },
        {
          "internalType": "uint256",
          "name": "tokenId",
          "type": "uint256"
        }
      ],
      "name": "safeTransferFrom",
      "outputs": [],
      "stateMutability": "nonpayable",
      "type": "function"
    },
    {
      "inputs": [
        {
          "internalType": "address",
          "name": "from",
          "type": "address"
        },
        {
          "internalType": "address",
          "name": "to",
          "type": "address"
        },
        {
          "internalType": "uint256",
          "name": "tokenId",
          "type": "uint256"
        },
        {
          "internalType": "bytes",
          "name": "data",
          "type": "bytes"
        }
      ],
      "name": "safeTransferFrom",
      "outputs": [],
      "stateMutability": "nonpayable",
      "type": "function"
    },
    {
      "inputs": [
        {
          "internalType": "address",
          "name": "operator",
          "type": "address"
        },
        {
          "internalType": "bool",
          "name": "approved",
          "type": "bool"
        }
      ],
      "name": "setApprovalForAll",
      "outputs": [],
      "stateMutability": "nonpayable",
      "type": "function"
    },
    {
      "inputs": [
        {
          "internalType": "bytes4",
          "name": "interfaceId",
          "type": "bytes4"
        }
      ],
      "name": "supportsInterface",
      "outputs": [
        {
          "internalType": "bool",
          "name": "",
          "type": "bool"
        }
      ],
      "stateMutability": "view",
      "type": "function"
    },
    {
      "inputs": [],
      "name": "symbol",
      "outputs": [
        {
          "internalType": "string",
          "name": "",
          "type": "string"
        }
      ],
      "stateMutability": "view",
      "type": "function"
    },
    {
      "inputs": [
        {
          "internalType": "uint256",
          "name": "tokenId",
          "type": "uint256"
        }
      ],
      "name": "tokenURI",
      "outputs": [
        {
          "internalType": "string",
          "name": "",
          "type": "string"
        }
      ],
      "stateMutability": "view",
      "type": "function"
    },
    {
      "inputs": [
        {
          "internalType": "address",
          "name": "from",
          "type": "address"
        },
        {
          "internalType": "address",
          "name": "to",
          "type": "address"
        },
        {
          "internalType": "uint256",
          "name": "tokenId",
          "type": "uint256"
        }
      ],
      "name": "transferFrom",
      "outputs": [],
      "stateMutability": "nonpayable",
      "type": "function"
    },
    {
      "inputs": [
        {
          "internalType": "uint256",
          "name": "",
          "type": "uint256"
        }
      ],
      "name": "users",
      "outputs": [
        {
          "internalType": "address",
          "name": "",
          "type": "address"
        }
      ],
      "stateMutability": "view",
      "type": "function"
    }
  ],
  "bytecode": "0x60806040523480156200001157600080fd5b506040518060400160405280600481526020017f6e616d65000000000000000000000000000000000000000000000000000000008152506040518060400160405280600681526020017f73796d626f6c000000000000000000000000000000000000000000000000000081525081600090816200008f919062000324565b508060019081620000a1919062000324565b5050506200040b565b600081519050919050565b7f4e487b7100000000000000000000000000000000000000000000000000000000600052604160045260246000fd5b7f4e487b7100000000000000000000000000000000000000000000000000000000600052602260045260246000fd5b600060028204905060018216806200012c57607f821691505b602082108103620001425762000141620000e4565b5b50919050565b60008190508160005260206000209050919050565b60006020601f8301049050919050565b600082821b905092915050565b600060088302620001ac7fffffffffffffffffffffffffffffffffffffffffffffffffffffffffffffffff826200016d565b620001b886836200016d565b95508019841693508086168417925050509392505050565b6000819050919050565b6000819050919050565b600062000205620001ff620001f984620001d0565b620001da565b620001d0565b9050919050565b6000819050919050565b6200022183620001e4565b6200023962000230826200020c565b8484546200017a565b825550505050565b600090565b6200025062000241565b6200025d81848462000216565b505050565b5b8181101562000285576200027960008262000246565b60018101905062000263565b5050565b601f821115620002d4576200029e8162000148565b620002a9846200015d565b81016020851015620002b9578190505b620002d1620002c8856200015d565b83018262000262565b50505b505050565b600082821c905092915050565b6000620002f960001984600802620002d9565b1980831691505092915050565b6000620003148383620002e6565b9150826002028217905092915050565b6200032f82620000aa565b67ffffffffffffffff8111156200034b576200034a620000b5565b5b62000357825462000113565b6200036482828562000289565b600060209050601f8311600181146200039c576000841562000387578287015190505b62000393858262000306565b86555062000403565b601f198416620003ac8662000148565b60005b82811015620003d657848901518255600182019150602085019450602081019050620003af565b86831015620003f65784890151620003f2601f891682620002e6565b8355505b6001600288020188555050505b505050505050565b612f04806200041b6000396000f3fe608060405234801561001057600080fd5b50600436106101a95760003560e01c8063481c6a75116100f9578063b88d4fde11610097578063e1f3f6ce11610071578063e1f3f6ce146104f6578063e865af0414610526578063e985e9c514610542578063f7746e3614610572576101a9565b8063b88d4fde1461047a578063bde036b714610496578063c87b56dd146104c6576101a9565b806395d89b41116100d357806395d89b41146103e05780639cdcee5d146103fe578063a22cb4651461042e578063aeb250491461044a576101a9565b8063481c6a75146103625780636352211e1461038057806370a08231146103b0576101a9565b80631350e913116101665780632f2f4859116101405780632f2f4859146102da578063365b98b2146102f85780633da0f2e31461032857806342842e0e14610346576101a9565b80631350e9131461029657806323b872dd146102a057806329e15dde146102bc576101a9565b806301ffc9a7146101ae578063038b1492146101de578063046550431461020e57806306fdde031461022c578063081812fc1461024a578063095ea7b31461027a575b600080fd5b6101c860048036038101906101c3919061221f565b6105a4565b6040516101d59190612267565b60405180910390f35b6101f860048036038101906101f391906122b8565b610686565b60405161020591906122f4565b60405180910390f35b6102166106aa565b60405161022391906123cd565b60405180910390f35b61023461073f565b604051610241919061247f565b60405180910390f35b610264600480360381019061025f91906122b8565b6107d1565b60405161027191906124e2565b60405180910390f35b610294600480360381019061028f9190612529565b6107ed565b005b61029e610803565b005b6102ba60048036038101906102b59190612569565b610acf565b005b6102c4610bd1565b6040516102d191906123cd565b60405180910390f35b6102e2610c29565b6040516102ef919061247f565b60405180910390f35b610312600480360381019061030d91906122b8565b610c66565b60405161031f91906124e2565b60405180910390f35b610330610ca5565b60405161033d91906122f4565b60405180910390f35b610360600480360381019061035b9190612569565b610caa565b005b61036a610cca565b60405161037791906124e2565b60405180910390f35b61039a600480360381019061039591906122b8565b610cf0565b6040516103a791906124e2565b60405180910390f35b6103ca60048036038101906103c591906125bc565b610d02565b6040516103d791906122f4565b60405180910390f35b6103e8610dbc565b6040516103f5919061247f565b60405180910390f35b61041860048036038101906104139190612529565b610e4e565b60405161042591906122f4565b60405180910390f35b61044860048036038101906104439190612615565b610e7f565b005b610464600480360381019061045f91906122b8565b610e95565b60405161047191906124e2565b60405180910390f35b610494600480360381019061048f919061278a565b610ed5565b005b6104b060048036038101906104ab91906122b8565b610ef2565b6040516104bd91906124e2565b60405180910390f35b6104e060048036038101906104db91906122b8565b610f32565b6040516104ed919061247f565b60405180910390f35b610510600480360381019061050b91906122b8565b610f9b565b60405161051d91906122f4565b60405180910390f35b610540600480360381019061053b919061280d565b610fbf565b005b61055c6004803603810190610557919061284d565b611274565b6040516105699190612267565b60405180910390f35b61058c600480360381019061058791906122b8565b611308565b60405161059b9392919061288d565b60405180910390f35b60007f80ac58cd000000000000000000000000000000000000000000000000000000007bffffffffffffffffffffffffffffffffffffffffffffffffffffffff1916827bffffffffffffffffffffffffffffffffffffffffffffffffffffffff1916148061066f57507f5b5e139f000000000000000000000000000000000000000000000000000000007bffffffffffffffffffffffffffffffffffffffffffffffffffffffff1916827bffffffffffffffffffffffffffffffffffffffffffffffffffffffff1916145b8061067f575061067e82611372565b5b9050919050565b600c818154811061069657600080fd5b906000526020600020016000915090505481565b6060600a60003373ffffffffffffffffffffffffffffffffffffffff1673ffffffffffffffffffffffffffffffffffffffff16815260200190815260200160002080548060200260200160405190810160405280929190818152602001828054801561073557602002820191906000526020600020905b815481526020019060010190808311610721575b5050505050905090565b60606000805461074e906128f3565b80601f016020809104026020016040519081016040528092919081815260200182805461077a906128f3565b80156107c75780601f1061079c576101008083540402835291602001916107c7565b820191906000526020600020905b8154815290600101906020018083116107aa57829003601f168201915b5050505050905090565b60006107dc826113dc565b506107e682611464565b9050919050565b6107ff82826107fa6114a1565b6114a9565b5050565b6003600760003373ffffffffffffffffffffffffffffffffffffffff1673ffffffffffffffffffffffffffffffffffffffff168152602001908152602001600020541115610886576040517f08c379a000000000000000000000000000000000000000000000000000000000815260040161087d90612970565b60405180910390fd5b600042443360405160200161089d939291906129f9565b6040516020818303038152906040528051906020012060001c90506108c233826114bb565b600060405180606001604052803373ffffffffffffffffffffffffffffffffffffffff168152602001600073ffffffffffffffffffffffffffffffffffffffff16815260200160008152509050806009600084815260200190815260200160002060008201518160000160006101000a81548173ffffffffffffffffffffffffffffffffffffffff021916908373ffffffffffffffffffffffffffffffffffffffff16021790555060208201518160010160006101000a81548173ffffffffffffffffffffffffffffffffffffffff021916908373ffffffffffffffffffffffffffffffffffffffff16021790555060408201518160020155905050600a60003373ffffffffffffffffffffffffffffffffffffffff1673ffffffffffffffffffffffffffffffffffffffff168152602001908152602001600020829080600181540180825580915050600190039060005260206000200160009091909190915055600b829080600181540180825580915050600190039060005260206000200160009091909190915055600c829080600181540180825580915050600190039060005260206000200160009091909190915055600760003373ffffffffffffffffffffffffffffffffffffffff1673ffffffffffffffffffffffffffffffffffffffff1681526020019081526020016000206000815480929190610ac690612a65565b91905055505050565b600073ffffffffffffffffffffffffffffffffffffffff168273ffffffffffffffffffffffffffffffffffffffff1603610b415760006040517f64a0ae92000000000000000000000000000000000000000000000000000000008152600401610b3891906124e2565b60405180910390fd5b6000610b558383610b506114a1565b6114d9565b90508373ffffffffffffffffffffffffffffffffffffffff168173ffffffffffffffffffffffffffffffffffffffff1614610bcb578382826040517f64283d7b000000000000000000000000000000000000000000000000000000008152600401610bc293929190612aad565b60405180910390fd5b50505050565b6060600c805480602002602001604051908101604052809291908181526020018280548015610c1f57602002820191906000526020600020905b815481526020019060010190808311610c0b575b5050505050905090565b60606040518060400160405280600b81526020017f68656c6c6f20776f726c64000000000000000000000000000000000000000000815250905090565b60068181548110610c7657600080fd5b906000526020600020016000915054906101000a900473ffffffffffffffffffffffffffffffffffffffff1681565b600381565b610cc583838360405180602001604052806000815250610ed5565b505050565b600860009054906101000a900473ffffffffffffffffffffffffffffffffffffffff1681565b6000610cfb826113dc565b9050919050565b60008073ffffffffffffffffffffffffffffffffffffffff168273ffffffffffffffffffffffffffffffffffffffff1603610d755760006040517f89c62b64000000000000000000000000000000000000000000000000000000008152600401610d6c91906124e2565b60405180910390fd5b600360008373ffffffffffffffffffffffffffffffffffffffff1673ffffffffffffffffffffffffffffffffffffffff168152602001908152602001600020549050919050565b606060018054610dcb906128f3565b80601f0160208091040260200160405190810160405280929190818152602001828054610df7906128f3565b8015610e445780601f10610e1957610100808354040283529160200191610e44565b820191906000526020600020905b815481529060010190602001808311610e2757829003601f168201915b5050505050905090565b600a6020528160005260406000208181548110610e6a57600080fd5b90600052602060002001600091509150505481565b610e91610e8a6114a1565b83836116f3565b5050565b60006009600083815260200190815260200160002060000160009054906101000a900473ffffffffffffffffffffffffffffffffffffffff169050919050565b610ee0848484610acf565b610eec84848484611862565b50505050565b60006009600083815260200190815260200160002060010160009054906101000a900473ffffffffffffffffffffffffffffffffffffffff169050919050565b6060610f3d826113dc565b506000610f48611a19565b90506000815111610f685760405180602001604052806000815250610f93565b80610f7284611a30565b604051602001610f83929190612b20565b6040516020818303038152906040525b915050919050565b600b8181548110610fab57600080fd5b906000526020600020016000915090505481565b600073ffffffffffffffffffffffffffffffffffffffff166009600084815260200190815260200160002060000160009054906101000a900473ffffffffffffffffffffffffffffffffffffffff1673ffffffffffffffffffffffffffffffffffffffff1603611064576040517f08c379a000000000000000000000000000000000000000000000000000000000815260040161105b90612b90565b60405180910390fd5b600073ffffffffffffffffffffffffffffffffffffffff166009600084815260200190815260200160002060010160009054906101000a900473ffffffffffffffffffffffffffffffffffffffff1673ffffffffffffffffffffffffffffffffffffffff1614611109576040517f08c379a000000000000000000000000000000000000000000000000000000000815260040161110090612bfc565b60405180910390fd5b3373ffffffffffffffffffffffffffffffffffffffff166009600084815260200190815260200160002060000160009054906101000a900473ffffffffffffffffffffffffffffffffffffffff1673ffffffffffffffffffffffffffffffffffffffff16036111ad576040517f08c379a00000000000000000000000000000000000000000000000000000000081526004016111a490612c68565b60405180910390fd5b336009600084815260200190815260200160002060010160006101000a81548173ffffffffffffffffffffffffffffffffffffffff021916908373ffffffffffffffffffffffffffffffffffffffff160217905550804261120e9190612c88565b6009600084815260200190815260200160002060020181905550611233600c83611afe565b7f8879d78706834dc00d82232992f71250fab6a1f70b08260968253950083d88cd823342846040516112689493929190612cbc565b60405180910390a15050565b6000600560008473ffffffffffffffffffffffffffffffffffffffff1673ffffffffffffffffffffffffffffffffffffffff16815260200190815260200160002060008373ffffffffffffffffffffffffffffffffffffffff1673ffffffffffffffffffffffffffffffffffffffff16815260200190815260200160002060009054906101000a900460ff16905092915050565b60096020528060005260406000206000915090508060000160009054906101000a900473ffffffffffffffffffffffffffffffffffffffff16908060010160009054906101000a900473ffffffffffffffffffffffffffffffffffffffff16908060020154905083565b60007f01ffc9a7000000000000000000000000000000000000000000000000000000007bffffffffffffffffffffffffffffffffffffffffffffffffffffffff1916827bffffffffffffffffffffffffffffffffffffffffffffffffffffffff1916149050919050565b6000806113e883611bc4565b9050600073ffffffffffffffffffffffffffffffffffffffff168173ffffffffffffffffffffffffffffffffffffffff160361145b57826040517f7e27328900000000000000000000000000000000000000000000000000000000815260040161145291906122f4565b60405180910390fd5b80915050919050565b60006004600083815260200190815260200160002060009054906101000a900473ffffffffffffffffffffffffffffffffffffffff169050919050565b600033905090565b6114b68383836001611c01565b505050565b6114d5828260405180602001604052806000815250611dc6565b5050565b6000806114e584611bc4565b9050600073ffffffffffffffffffffffffffffffffffffffff168373ffffffffffffffffffffffffffffffffffffffff161461152757611526818486611de2565b5b600073ffffffffffffffffffffffffffffffffffffffff168173ffffffffffffffffffffffffffffffffffffffff16146115b857611569600085600080611c01565b6001600360008373ffffffffffffffffffffffffffffffffffffffff1673ffffffffffffffffffffffffffffffffffffffff168152602001908152602001600020600082825403925050819055505b600073ffffffffffffffffffffffffffffffffffffffff168573ffffffffffffffffffffffffffffffffffffffff161461163b576001600360008773ffffffffffffffffffffffffffffffffffffffff1673ffffffffffffffffffffffffffffffffffffffff168152602001908152602001600020600082825401925050819055505b846002600086815260200190815260200160002060006101000a81548173ffffffffffffffffffffffffffffffffffffffff021916908373ffffffffffffffffffffffffffffffffffffffff160217905550838573ffffffffffffffffffffffffffffffffffffffff168273ffffffffffffffffffffffffffffffffffffffff167fddf252ad1be2c89b69c2b068fc378daa952ba7f163c4a11628f55a4df523b3ef60405160405180910390a4809150509392505050565b600073ffffffffffffffffffffffffffffffffffffffff168273ffffffffffffffffffffffffffffffffffffffff160361176457816040517f5b08ba1800000000000000000000000000000000000000000000000000000000815260040161175b91906124e2565b60405180910390fd5b80600560008573ffffffffffffffffffffffffffffffffffffffff1673ffffffffffffffffffffffffffffffffffffffff16815260200190815260200160002060008473ffffffffffffffffffffffffffffffffffffffff1673ffffffffffffffffffffffffffffffffffffffff16815260200190815260200160002060006101000a81548160ff0219169083151502179055508173ffffffffffffffffffffffffffffffffffffffff168373ffffffffffffffffffffffffffffffffffffffff167f17307eab39ab6107e8899845ad3d59bd9653f200f220920489ca2b5937696c31836040516118559190612267565b60405180910390a3505050565b60008373ffffffffffffffffffffffffffffffffffffffff163b1115611a13578273ffffffffffffffffffffffffffffffffffffffff1663150b7a026118a66114a1565b8685856040518563ffffffff1660e01b81526004016118c89493929190612d56565b6020604051808303816000875af192505050801561190457506040513d601f19601f820116820180604052508101906119019190612db7565b60015b611988573d8060008114611934576040519150601f19603f3d011682016040523d82523d6000602084013e611939565b606091505b50600081510361198057836040517f64a0ae9200000000000000000000000000000000000000000000000000000000815260040161197791906124e2565b60405180910390fd5b805181602001fd5b63150b7a0260e01b7bffffffffffffffffffffffffffffffffffffffffffffffffffffffff1916817bffffffffffffffffffffffffffffffffffffffffffffffffffffffff191614611a1157836040517f64a0ae92000000000000000000000000000000000000000000000000000000008152600401611a0891906124e2565b60405180910390fd5b505b50505050565b606060405180602001604052806000815250905090565b606060006001611a3f84611ea6565b01905060008167ffffffffffffffff811115611a5e57611a5d61265f565b5b6040519080825280601f01601f191660200182016040528015611a905781602001600182028036833780820191505090505b509050600082602001820190505b600115611af3578080600190039150507f3031323334353637383961626364656600000000000000000000000000000000600a86061a8153600a8581611ae757611ae6612de4565b5b04945060008503611a9e575b819350505050919050565b60005b8280549050811015611bbf5781838281548110611b2157611b20612e13565b5b906000526020600020015403611bac578260018480549050611b439190612e42565b81548110611b5457611b53612e13565b5b9060005260206000200154838281548110611b7257611b71612e13565b5b906000526020600020018190555082805480611b9157611b90612e76565b5b60019003818190600052602060002001600090559055611bbf565b8080611bb790612a65565b915050611b01565b505050565b60006002600083815260200190815260200160002060009054906101000a900473ffffffffffffffffffffffffffffffffffffffff169050919050565b8080611c3a5750600073ffffffffffffffffffffffffffffffffffffffff168273ffffffffffffffffffffffffffffffffffffffff1614155b15611d6e576000611c4a846113dc565b9050600073ffffffffffffffffffffffffffffffffffffffff168373ffffffffffffffffffffffffffffffffffffffff1614158015611cb557508273ffffffffffffffffffffffffffffffffffffffff168173ffffffffffffffffffffffffffffffffffffffff1614155b8015611cc85750611cc68184611274565b155b15611d0a57826040517fa9fbf51f000000000000000000000000000000000000000000000000000000008152600401611d0191906124e2565b60405180910390fd5b8115611d6c57838573ffffffffffffffffffffffffffffffffffffffff168273ffffffffffffffffffffffffffffffffffffffff167f8c5be1e5ebec7d5bd14f71427d1e84f3dd0314c0f7b2291e5b200ac8c7c3b92560405160405180910390a45b505b836004600085815260200190815260200160002060006101000a81548173ffffffffffffffffffffffffffffffffffffffff021916908373ffffffffffffffffffffffffffffffffffffffff16021790555050505050565b611dd08383611ff9565b611ddd6000848484611862565b505050565b611ded8383836120f2565b611ea157600073ffffffffffffffffffffffffffffffffffffffff168373ffffffffffffffffffffffffffffffffffffffff1603611e6257806040517f7e273289000000000000000000000000000000000000000000000000000000008152600401611e5991906122f4565b60405180910390fd5b81816040517f177e802f000000000000000000000000000000000000000000000000000000008152600401611e98929190612ea5565b60405180910390fd5b505050565b600080600090507a184f03e93ff9f4daa797ed6e38ed64bf6a1f0100000000000000008310611f04577a184f03e93ff9f4daa797ed6e38ed64bf6a1f0100000000000000008381611efa57611ef9612de4565b5b0492506040810190505b6d04ee2d6d415b85acef81000000008310611f41576d04ee2d6d415b85acef81000000008381611f3757611f36612de4565b5b0492506020810190505b662386f26fc100008310611f7057662386f26fc100008381611f6657611f65612de4565b5b0492506010810190505b6305f5e1008310611f99576305f5e1008381611f8f57611f8e612de4565b5b0492506008810190505b6127108310611fbe576127108381611fb457611fb3612de4565b5b0492506004810190505b60648310611fe15760648381611fd757611fd6612de4565b5b0492506002810190505b600a8310611ff0576001810190505b80915050919050565b600073ffffffffffffffffffffffffffffffffffffffff168273ffffffffffffffffffffffffffffffffffffffff160361206b5760006040517f64a0ae9200000000000000000000000000000000000000000000000000000000815260040161206291906124e2565b60405180910390fd5b6000612079838360006114d9565b9050600073ffffffffffffffffffffffffffffffffffffffff168173ffffffffffffffffffffffffffffffffffffffff16146120ed5760006040517f73c6ac6e0000000000000000000000000000000000000000000000000000000081526004016120e491906124e2565b60405180910390fd5b505050565b60008073ffffffffffffffffffffffffffffffffffffffff168373ffffffffffffffffffffffffffffffffffffffff16141580156121aa57508273ffffffffffffffffffffffffffffffffffffffff168473ffffffffffffffffffffffffffffffffffffffff16148061216b575061216a8484611274565b5b806121a957508273ffffffffffffffffffffffffffffffffffffffff1661219183611464565b73ffffffffffffffffffffffffffffffffffffffff16145b5b90509392505050565b6000604051905090565b600080fd5b600080fd5b60007fffffffff0000000000000000000000000000000000000000000000000000000082169050919050565b6121fc816121c7565b811461220757600080fd5b50565b600081359050612219816121f3565b92915050565b600060208284031215612235576122346121bd565b5b60006122438482850161220a565b91505092915050565b60008115159050919050565b6122618161224c565b82525050565b600060208201905061227c6000830184612258565b92915050565b6000819050919050565b61229581612282565b81146122a057600080fd5b50565b6000813590506122b28161228c565b92915050565b6000602082840312156122ce576122cd6121bd565b5b60006122dc848285016122a3565b91505092915050565b6122ee81612282565b82525050565b600060208201905061230960008301846122e5565b92915050565b600081519050919050565b600082825260208201905092915050565b6000819050602082019050919050565b61234481612282565b82525050565b6000612356838361233b565b60208301905092915050565b6000602082019050919050565b600061237a8261230f565b612384818561231a565b935061238f8361232b565b8060005b838110156123c05781516123a7888261234a565b97506123b283612362565b925050600181019050612393565b5085935050505092915050565b600060208201905081810360008301526123e7818461236f565b905092915050565b600081519050919050565b600082825260208201905092915050565b60005b8381101561242957808201518184015260208101905061240e565b60008484015250505050565b6000601f19601f8301169050919050565b6000612451826123ef565b61245b81856123fa565b935061246b81856020860161240b565b61247481612435565b840191505092915050565b600060208201905081810360008301526124998184612446565b905092915050565b600073ffffffffffffffffffffffffffffffffffffffff82169050919050565b60006124cc826124a1565b9050919050565b6124dc816124c1565b82525050565b60006020820190506124f760008301846124d3565b92915050565b612506816124c1565b811461251157600080fd5b50565b600081359050612523816124fd565b92915050565b600080604083850312156125405761253f6121bd565b5b600061254e85828601612514565b925050602061255f858286016122a3565b9150509250929050565b600080600060608486031215612582576125816121bd565b5b600061259086828701612514565b93505060206125a186828701612514565b92505060406125b2868287016122a3565b9150509250925092565b6000602082840312156125d2576125d16121bd565b5b60006125e084828501612514565b91505092915050565b6125f28161224c565b81146125fd57600080fd5b50565b60008135905061260f816125e9565b92915050565b6000806040838503121561262c5761262b6121bd565b5b600061263a85828601612514565b925050602061264b85828601612600565b9150509250929050565b600080fd5b600080fd5b7f4e487b7100000000000000000000000000000000000000000000000000000000600052604160045260246000fd5b61269782612435565b810181811067ffffffffffffffff821117156126b6576126b561265f565b5b80604052505050565b60006126c96121b3565b90506126d5828261268e565b919050565b600067ffffffffffffffff8211156126f5576126f461265f565b5b6126fe82612435565b9050602081019050919050565b82818337600083830152505050565b600061272d612728846126da565b6126bf565b9050828152602081018484840111156127495761274861265a565b5b61275484828561270b565b509392505050565b600082601f83011261277157612770612655565b5b813561278184826020860161271a565b91505092915050565b600080600080608085870312156127a4576127a36121bd565b5b60006127b287828801612514565b94505060206127c387828801612514565b93505060406127d4878288016122a3565b925050606085013567ffffffffffffffff8111156127f5576127f46121c2565b5b6128018782880161275c565b91505092959194509250565b60008060408385031215612824576128236121bd565b5b6000612832858286016122a3565b9250506020612843858286016122a3565b9150509250929050565b60008060408385031215612864576128636121bd565b5b600061287285828601612514565b925050602061288385828601612514565b9150509250929050565b60006060820190506128a260008301866124d3565b6128af60208301856124d3565b6128bc60408301846122e5565b949350505050565b7f4e487b7100000000000000000000000000000000000000000000000000000000600052602260045260246000fd5b6000600282049050600182168061290b57607f821691505b60208210810361291e5761291d6128c4565b5b50919050565b7f4e6f206d6f726520667265652063617273000000000000000000000000000000600082015250565b600061295a6011836123fa565b915061296582612924565b602082019050919050565b600060208201905081810360008301526129898161294d565b9050919050565b6000819050919050565b6129ab6129a682612282565b612990565b82525050565b60008160601b9050919050565b60006129c9826129b1565b9050919050565b60006129db826129be565b9050919050565b6129f36129ee826124c1565b6129d0565b82525050565b6000612a05828661299a565b602082019150612a15828561299a565b602082019150612a2582846129e2565b601482019150819050949350505050565b7f4e487b7100000000000000000000000000000000000000000000000000000000600052601160045260246000fd5b6000612a7082612282565b91507fffffffffffffffffffffffffffffffffffffffffffffffffffffffffffffffff8203612aa257612aa1612a36565b5b600182019050919050565b6000606082019050612ac260008301866124d3565b612acf60208301856122e5565b612adc60408301846124d3565b949350505050565b600081905092915050565b6000612afa826123ef565b612b048185612ae4565b9350612b1481856020860161240b565b80840191505092915050565b6000612b2c8285612aef565b9150612b388284612aef565b91508190509392505050565b7f5468652063617220646f6573206e6f7420657869737421000000000000000000600082015250565b6000612b7a6017836123fa565b9150612b8582612b44565b602082019050919050565b60006020820190508181036000830152612ba981612b6d565b9050919050565b7f5468652063617220686173206265656e20626f72726f77656421000000000000600082015250565b6000612be6601a836123fa565b9150612bf182612bb0565b602082019050919050565b60006020820190508181036000830152612c1581612bd9565b9050919050565b7f5468697320697320796f7572206f776e20636172210000000000000000000000600082015250565b6000612c526015836123fa565b9150612c5d82612c1c565b602082019050919050565b60006020820190508181036000830152612c8181612c45565b9050919050565b6000612c9382612282565b9150612c9e83612282565b9250828201905080821115612cb657612cb5612a36565b5b92915050565b6000608082019050612cd160008301876122e5565b612cde60208301866124d3565b612ceb60408301856122e5565b612cf860608301846122e5565b95945050505050565b600081519050919050565b600082825260208201905092915050565b6000612d2882612d01565b612d328185612d0c565b9350612d4281856020860161240b565b612d4b81612435565b840191505092915050565b6000608082019050612d6b60008301876124d3565b612d7860208301866124d3565b612d8560408301856122e5565b8181036060830152612d978184612d1d565b905095945050505050565b600081519050612db1816121f3565b92915050565b600060208284031215612dcd57612dcc6121bd565b5b6000612ddb84828501612da2565b91505092915050565b7f4e487b7100000000000000000000000000000000000000000000000000000000600052601260045260246000fd5b7f4e487b7100000000000000000000000000000000000000000000000000000000600052603260045260246000fd5b6000612e4d82612282565b9150612e5883612282565b9250828203905081811115612e7057612e6f612a36565b5b92915050565b7f4e487b7100000000000000000000000000000000000000000000000000000000600052603160045260246000fd5b6000604082019050612eba60008301856124d3565b612ec760208301846122e5565b939250505056fea26469706673582212208cf4832545602e3ee665264391e23f9fbb8ac3a40bbe5e4e13de8100e12afe5d64736f6c63430008140033",
  "linkReferences": {},
  "deployedLinkReferences": {}
}